{
  "contractName": "HouseToken",
  "abi": [
    {
      "constant": true,
      "inputs": [
        {
          "name": "interfaceId",
          "type": "bytes4"
        }
      ],
      "name": "supportsInterface",
      "outputs": [
        {
          "name": "",
          "type": "bool"
        }
      ],
      "payable": false,
      "stateMutability": "view",
      "type": "function"
    },
    {
      "constant": true,
      "inputs": [],
      "name": "name",
      "outputs": [
        {
          "name": "",
          "type": "string"
        }
      ],
      "payable": false,
      "stateMutability": "view",
      "type": "function"
    },
    {
      "constant": true,
      "inputs": [
        {
          "name": "tokenId",
          "type": "uint256"
        }
      ],
      "name": "getApproved",
      "outputs": [
        {
          "name": "",
          "type": "address"
        }
      ],
      "payable": false,
      "stateMutability": "view",
      "type": "function"
    },
    {
      "constant": false,
      "inputs": [
        {
          "name": "to",
          "type": "address"
        },
        {
          "name": "tokenId",
          "type": "uint256"
        }
      ],
      "name": "approve",
      "outputs": [],
      "payable": false,
      "stateMutability": "nonpayable",
      "type": "function"
    },
    {
      "constant": false,
      "inputs": [],
      "name": "setContact",
      "outputs": [],
      "payable": false,
      "stateMutability": "nonpayable",
      "type": "function"
    },
    {
      "constant": true,
      "inputs": [],
      "name": "totalSupply",
      "outputs": [
        {
          "name": "",
          "type": "uint256"
        }
      ],
      "payable": false,
      "stateMutability": "view",
      "type": "function"
    },
    {
      "constant": false,
      "inputs": [
        {
          "name": "from",
          "type": "address"
        },
        {
          "name": "to",
          "type": "address"
        },
        {
          "name": "tokenId",
          "type": "uint256"
        }
      ],
      "name": "transferFrom",
      "outputs": [],
      "payable": false,
      "stateMutability": "nonpayable",
      "type": "function"
    },
    {
      "constant": false,
      "inputs": [
        {
          "name": "_myid",
          "type": "bytes32"
        },
        {
          "name": "_result",
          "type": "string"
        }
      ],
      "name": "__callback",
      "outputs": [],
      "payable": false,
      "stateMutability": "nonpayable",
      "type": "function"
    },
    {
      "constant": true,
      "inputs": [
        {
          "name": "owner",
          "type": "address"
        },
        {
          "name": "index",
          "type": "uint256"
        }
      ],
      "name": "tokenOfOwnerByIndex",
      "outputs": [
        {
          "name": "",
          "type": "uint256"
        }
      ],
      "payable": false,
      "stateMutability": "view",
      "type": "function"
    },
    {
      "constant": false,
      "inputs": [
        {
          "name": "_myid",
          "type": "bytes32"
        },
        {
          "name": "_result",
          "type": "string"
        },
        {
          "name": "_proof",
          "type": "bytes"
        }
      ],
      "name": "__callback",
      "outputs": [],
      "payable": false,
      "stateMutability": "nonpayable",
      "type": "function"
    },
    {
      "constant": true,
      "inputs": [],
      "name": "BaseTokenURI",
      "outputs": [
        {
          "name": "",
          "type": "string"
        }
      ],
      "payable": false,
      "stateMutability": "view",
      "type": "function"
    },
    {
      "constant": false,
      "inputs": [
        {
          "name": "from",
          "type": "address"
        },
        {
          "name": "to",
          "type": "address"
        },
        {
          "name": "tokenId",
          "type": "uint256"
        }
      ],
      "name": "safeTransferFrom",
      "outputs": [],
      "payable": false,
      "stateMutability": "nonpayable",
      "type": "function"
    },
    {
      "constant": true,
      "inputs": [
        {
          "name": "index",
          "type": "uint256"
        }
      ],
      "name": "tokenByIndex",
      "outputs": [
        {
          "name": "",
          "type": "uint256"
        }
      ],
      "payable": false,
      "stateMutability": "view",
      "type": "function"
    },
    {
      "constant": true,
      "inputs": [
        {
          "name": "tokenId",
          "type": "uint256"
        }
      ],
      "name": "ownerOf",
      "outputs": [
        {
          "name": "",
          "type": "address"
        }
      ],
      "payable": false,
      "stateMutability": "view",
      "type": "function"
    },
    {
      "constant": true,
      "inputs": [
        {
          "name": "owner",
          "type": "address"
        }
      ],
      "name": "balanceOf",
      "outputs": [
        {
          "name": "",
          "type": "uint256"
        }
      ],
      "payable": false,
      "stateMutability": "view",
      "type": "function"
    },
    {
      "constant": true,
      "inputs": [],
      "name": "symbol",
      "outputs": [
        {
          "name": "",
          "type": "string"
        }
      ],
      "payable": false,
      "stateMutability": "view",
      "type": "function"
    },
    {
      "constant": false,
      "inputs": [
        {
          "name": "to",
          "type": "address"
        },
        {
          "name": "approved",
          "type": "bool"
        }
      ],
      "name": "setApprovalForAll",
      "outputs": [],
      "payable": false,
      "stateMutability": "nonpayable",
      "type": "function"
    },
    {
      "constant": true,
      "inputs": [],
      "name": "_owner",
      "outputs": [
        {
          "name": "",
          "type": "address"
        }
      ],
      "payable": false,
      "stateMutability": "view",
      "type": "function"
    },
    {
      "constant": false,
      "inputs": [
        {
          "name": "from",
          "type": "address"
        },
        {
          "name": "to",
          "type": "address"
        },
        {
          "name": "tokenId",
          "type": "uint256"
        },
        {
          "name": "_data",
          "type": "bytes"
        }
      ],
      "name": "safeTransferFrom",
      "outputs": [],
      "payable": false,
      "stateMutability": "nonpayable",
      "type": "function"
    },
    {
      "constant": true,
      "inputs": [
        {
          "name": "tokenId",
          "type": "uint256"
        }
      ],
      "name": "tokenURI",
      "outputs": [
        {
          "name": "",
          "type": "string"
        }
      ],
      "payable": false,
      "stateMutability": "view",
      "type": "function"
    },
    {
      "constant": true,
      "inputs": [
        {
          "name": "owner",
          "type": "address"
        },
        {
          "name": "operator",
          "type": "address"
        }
      ],
      "name": "isApprovedForAll",
      "outputs": [
        {
          "name": "",
          "type": "bool"
        }
      ],
      "payable": false,
      "stateMutability": "view",
      "type": "function"
    },
    {
      "constant": false,
      "inputs": [
        {
          "name": "newOwner",
          "type": "address"
        }
      ],
      "name": "transferOwnership",
      "outputs": [],
      "payable": false,
      "stateMutability": "nonpayable",
      "type": "function"
    },
    {
      "inputs": [
        {
          "name": "name",
          "type": "string"
        },
        {
          "name": "symbol",
          "type": "string"
        }
      ],
      "payable": false,
      "stateMutability": "nonpayable",
      "type": "constructor"
    },
    {
      "anonymous": false,
      "inputs": [
        {
          "indexed": true,
          "name": "from",
          "type": "address"
        },
        {
          "indexed": true,
          "name": "to",
          "type": "address"
        },
        {
          "indexed": true,
          "name": "tokenId",
          "type": "uint256"
        }
      ],
      "name": "Transfer",
      "type": "event"
    },
    {
      "anonymous": false,
      "inputs": [
        {
          "indexed": true,
          "name": "owner",
          "type": "address"
        },
        {
          "indexed": true,
          "name": "approved",
          "type": "address"
        },
        {
          "indexed": true,
          "name": "tokenId",
          "type": "uint256"
        }
      ],
      "name": "Approval",
      "type": "event"
    },
    {
      "anonymous": false,
      "inputs": [
        {
          "indexed": true,
          "name": "owner",
          "type": "address"
        },
        {
          "indexed": true,
          "name": "operator",
          "type": "address"
        },
        {
          "indexed": false,
          "name": "approved",
          "type": "bool"
        }
      ],
      "name": "ApprovalForAll",
      "type": "event"
    },
    {
      "anonymous": false,
      "inputs": [
        {
          "indexed": true,
          "name": "caller",
          "type": "address"
        }
      ],
      "name": "Paused",
      "type": "event"
    },
    {
      "anonymous": false,
      "inputs": [
        {
          "indexed": true,
          "name": "caller",
          "type": "address"
        }
      ],
      "name": "Unpaused",
      "type": "event"
    },
    {
      "anonymous": false,
      "inputs": [],
      "name": "OwnerShipIsTransfered",
      "type": "event"
    },
    {
      "constant": false,
      "inputs": [
        {
          "name": "to",
          "type": "address"
        },
        {
          "name": "tokenId",
          "type": "uint256"
        }
      ],
      "name": "mint",
      "outputs": [
        {
          "name": "",
          "type": "bool"
        }
      ],
      "payable": false,
      "stateMutability": "nonpayable",
      "type": "function"
    }
  ],
  "bytecode": "0x60806040523480156200001157600080fd5b5060405162002f0d38038062002f0d833981018060405260408110156200003757600080fd5b8101908080516401000000008111156200005057600080fd5b828101905060208101848111156200006757600080fd5b81518560018202830111640100000000821117156200008557600080fd5b50509291906020018051640100000000811115620000a257600080fd5b82810190506020810184811115620000b957600080fd5b8151856001820283011164010000000082111715620000d757600080fd5b50509291905050508181606060405190810160405280603f81526020017f68747470733a2f2f73332d75732d776573742d322e616d617a6f6e6177732e6381526020017f6f6d2f756461636974792d626c6f636b636861696e2f63617073746f6e652f00815250336000806101000a81548173ffffffffffffffffffffffffffffffffffffffff021916908373ffffffffffffffffffffffffffffffffffffffff16021790555060008060146101000a81548160ff021916908315150217905550620001d56301ffc9a77c010000000000000000000000000000000000000000000000000000000002620002e2640100000000026401000000009004565b620002126380ac58cd7c010000000000000000000000000000000000000000000000000000000002620002e2640100000000026401000000009004565b6200024f63780e9d637c010000000000000000000000000000000000000000000000000000000002620002e2640100000000026401000000009004565b82600f908051906020019062000267929190620003a0565b50816010908051906020019062000280929190620003a0565b50806011908051906020019062000299929190620003a0565b50620002d7635b5e139f7c010000000000000000000000000000000000000000000000000000000002620002e2640100000000026401000000009004565b50505050506200044f565b63ffffffff7c010000000000000000000000000000000000000000000000000000000002817bffffffffffffffffffffffffffffffffffffffffffffffffffffffff1916141515156200033457600080fd5b6001806000837bffffffffffffffffffffffffffffffffffffffffffffffffffffffff19167bffffffffffffffffffffffffffffffffffffffffffffffffffffffff1916815260200190815260200160002060006101000a81548160ff02191690831515021790555050565b828054600181600116156101000203166002900490600052602060002090601f016020900481019282601f10620003e357805160ff191683800117855562000414565b8280016001018555821562000414579182015b8281111562000413578251825591602001919060010190620003f6565b5b50905062000423919062000427565b5090565b6200044c91905b80821115620004485760008160009055506001016200042e565b5090565b90565b612aae806200045f6000396000f3fe60806040526004361061012d576000357c01000000000000000000000000000000000000000000000000000000009004806301ffc9a71461013257806306fdde03146101a4578063081812fc14610234578063095ea7b3146102af5780630c5520d91461030a57806318160ddd1461032157806323b872dd1461034c57806327dc297e146103c75780632f745c591461049957806338bbfa50146105085780633ca039f51461067157806340c10f191461070157806342842e0e146107745780634f6ccce7146107ef5780636352211e1461083e57806370a08231146108b957806395d89b411461091e578063a22cb465146109ae578063b2bdfa7b14610a0b578063b88d4fde14610a62578063c87b56dd14610b74578063e985e9c514610c28578063f2fde38b14610cb1575b600080fd5b34801561013e57600080fd5b5061018a6004803603602081101561015557600080fd5b8101908080357bffffffffffffffffffffffffffffffffffffffffffffffffffffffff19169060200190929190505050610d02565b604051808215151515815260200191505060405180910390f35b3480156101b057600080fd5b506101b9610d6a565b6040518080602001828103825283818151815260200191508051906020019080838360005b838110156101f95780820151818401526020810190506101de565b50505050905090810190601f1680156102265780820380516001836020036101000a031916815260200191505b509250505060405180910390f35b34801561024057600080fd5b5061026d6004803603602081101561025757600080fd5b8101908080359060200190929190505050610e0c565b604051808273ffffffffffffffffffffffffffffffffffffffff1673ffffffffffffffffffffffffffffffffffffffff16815260200191505060405180910390f35b3480156102bb57600080fd5b50610308600480360360408110156102d257600080fd5b81019080803573ffffffffffffffffffffffffffffffffffffffff16906020019092919080359060200190929190505050610eb7565b005b34801561031657600080fd5b5061031f610fbf565b005b34801561032d57600080fd5b5061033661101c565b6040518082815260200191505060405180910390f35b34801561035857600080fd5b506103c56004803603606081101561036f57600080fd5b81019080803573ffffffffffffffffffffffffffffffffffffffff169060200190929190803573ffffffffffffffffffffffffffffffffffffffff16906020019092919080359060200190929190505050611029565b005b3480156103d357600080fd5b50610497600480360360408110156103ea57600080fd5b81019080803590602001909291908035906020019064010000000081111561041157600080fd5b82018360208201111561042357600080fd5b8035906020019184600183028401116401000000008311171561044557600080fd5b91908080601f016020809104026020016040519081016040528093929190818152602001838380828437600081840152601f19601f82011690508083019250505050505050919291929050505061104e565b005b3480156104a557600080fd5b506104f2600480360360408110156104bc57600080fd5b81019080803573ffffffffffffffffffffffffffffffffffffffff16906020019092919080359060200190929190505050611091565b6040518082815260200191505060405180910390f35b34801561051457600080fd5b5061066f6004803603606081101561052b57600080fd5b81019080803590602001909291908035906020019064010000000081111561055257600080fd5b82018360208201111561056457600080fd5b8035906020019184600183028401116401000000008311171561058657600080fd5b91908080601f016020809104026020016040519081016040528093929190818152602001838380828437600081840152601f19601f820116905080830192505050505050509192919290803590602001906401000000008111156105e957600080fd5b8201836020820111156105fb57600080fd5b8035906020019184600183028401116401000000008311171561061d57600080fd5b91908080601f016020809104026020016040519081016040528093929190818152602001838380828437600081840152601f19601f820116905080830192505050505050509192919290505050611108565b005b34801561067d57600080fd5b5061068661110d565b6040518080602001828103825283818151815260200191508051906020019080838360005b838110156106c65780820151818401526020810190506106ab565b50505050905090810190601f1680156106f35780820380516001836020036101000a031916815260200191505b509250505060405180910390f35b34801561070d57600080fd5b5061075a6004803603604081101561072457600080fd5b81019080803573ffffffffffffffffffffffffffffffffffffffff169060200190929190803590602001909291905050506111af565b604051808215151515815260200191505060405180910390f35b34801561078057600080fd5b506107ed6004803603606081101561079757600080fd5b81019080803573ffffffffffffffffffffffffffffffffffffffff169060200190929190803573ffffffffffffffffffffffffffffffffffffffff169060200190929190803590602001909291905050506111ce565b005b3480156107fb57600080fd5b506108286004803603602081101561081257600080fd5b81019080803590602001909291905050506111ef565b6040518082815260200191505060405180910390f35b34801561084a57600080fd5b506108776004803603602081101561086157600080fd5b8101908080359060200190929190505050611227565b604051808273ffffffffffffffffffffffffffffffffffffffff1673ffffffffffffffffffffffffffffffffffffffff16815260200191505060405180910390f35b3480156108c557600080fd5b50610908600480360360208110156108dc57600080fd5b81019080803573ffffffffffffffffffffffffffffffffffffffff169060200190929190505050611264565b6040518082815260200191505060405180910390f35b34801561092a57600080fd5b506109336112b4565b6040518080602001828103825283818151815260200191508051906020019080838360005b83811015610973578082015181840152602081019050610958565b50505050905090810190601f1680156109a05780820380516001836020036101000a031916815260200191505b509250505060405180910390f35b3480156109ba57600080fd5b50610a09600480360360408110156109d157600080fd5b81019080803573ffffffffffffffffffffffffffffffffffffffff169060200190929190803515159060200190929190505050611356565b005b348015610a1757600080fd5b50610a20611492565b604051808273ffffffffffffffffffffffffffffffffffffffff1673ffffffffffffffffffffffffffffffffffffffff16815260200191505060405180910390f35b348015610a6e57600080fd5b50610b7260048036036080811015610a8557600080fd5b81019080803573ffffffffffffffffffffffffffffffffffffffff169060200190929190803573ffffffffffffffffffffffffffffffffffffffff1690602001909291908035906020019092919080359060200190640100000000811115610aec57600080fd5b820183602082011115610afe57600080fd5b80359060200191846001830284011164010000000083111715610b2057600080fd5b91908080601f016020809104026020016040519081016040528093929190818152602001838380828437600081840152601f19601f8201169050808301925050505050505091929192905050506114b7565b005b348015610b8057600080fd5b50610bad60048036036020811015610b9757600080fd5b81019080803590602001909291905050506114df565b6040518080602001828103825283818151815260200191508051906020019080838360005b83811015610bed578082015181840152602081019050610bd2565b50505050905090810190601f168015610c1a5780820380516001836020036101000a031916815260200191505b509250505060405180910390f35b348015610c3457600080fd5b50610c9760048036036040811015610c4b57600080fd5b81019080803573ffffffffffffffffffffffffffffffffffffffff169060200190929190803573ffffffffffffffffffffffffffffffffffffffff169060200190929190505050611611565b604051808215151515815260200191505060405180910390f35b348015610cbd57600080fd5b50610d0060048036036020811015610cd457600080fd5b81019080803573ffffffffffffffffffffffffffffffffffffffff1690602001909291905050506116a5565b005b600060016000837bffffffffffffffffffffffffffffffffffffffffffffffffffffffff19167bffffffffffffffffffffffffffffffffffffffffffffffffffffffff1916815260200190815260200160002060009054906101000a900460ff169050919050565b6060600f8054600181600116156101000203166002900480601f016020809104026020016040519081016040528092919081815260200182805460018160011615610100020316600290048015610e025780601f10610dd757610100808354040283529160200191610e02565b820191906000526020600020905b815481529060010190602001808311610de557829003601f168201915b5050505050905090565b60008073ffffffffffffffffffffffffffffffffffffffff166003600084815260200190815260200160002060009054906101000a900473ffffffffffffffffffffffffffffffffffffffff1673ffffffffffffffffffffffffffffffffffffffff16141515610eb1576003600083815260200190815260200160002060009054906101000a900473ffffffffffffffffffffffffffffffffffffffff169050610eb2565b5b919050565b610ec081611227565b73ffffffffffffffffffffffffffffffffffffffff163373ffffffffffffffffffffffffffffffffffffffff16141515610ef957600080fd5b610f033383611611565b1515610f0e57600080fd5b816003600083815260200190815260200160002060006101000a81548173ffffffffffffffffffffffffffffffffffffffff021916908373ffffffffffffffffffffffffffffffffffffffff160217905550808273ffffffffffffffffffffffffffffffffffffffff163373ffffffffffffffffffffffffffffffffffffffff167f8c5be1e5ebec7d5bd14f71427d1e84f3dd0314c0f7b2291e5b200ac8c7c3b92560405160405180910390a45050565b3373ffffffffffffffffffffffffffffffffffffffff166000809054906101000a900473ffffffffffffffffffffffffffffffffffffffff1673ffffffffffffffffffffffffffffffffffffffff1614151561101a57600080fd5b565b6000600880549050905090565b61103333826117a6565b151561103e57600080fd5b61104983838361183b565b505050565b61108d828260006040519080825280601f01601f1916602001820160405280156110875781602001600182028038833980820191505090505b50611108565b5050565b600061109c83611264565b821015156110a957600080fd5b600660008473ffffffffffffffffffffffffffffffffffffffff1673ffffffffffffffffffffffffffffffffffffffff168152602001908152602001600020828154811015156110f557fe5b9060005260206000200154905092915050565b505050565b606060118054600181600116156101000203166002900480601f0160208091040260200160405190810160405280929190818152602001828054600181600116156101000203166002900480156111a55780601f1061117a576101008083540402835291602001916111a5565b820191906000526020600020905b81548152906001019060200180831161118857829003601f168201915b5050505050905090565b60006111bb838361185f565b6111c482611880565b6001905092915050565b6111ea83838360206040519081016040528060008152506114b7565b505050565b60006111f961101c565b8210151561120657600080fd5b60088281548110151561121557fe5b90600052602060002001549050919050565b60006002600083815260200190815260200160002060009054906101000a900473ffffffffffffffffffffffffffffffffffffffff169050919050565b60006112ad600460008473ffffffffffffffffffffffffffffffffffffffff1673ffffffffffffffffffffffffffffffffffffffff1681526020019081526020016000206119d3565b9050919050565b606060108054600181600116156101000203166002900480601f01602080910402602001604051908101604052809291908181526020018280546001816001161561010002031660029004801561134c5780601f106113215761010080835404028352916020019161134c565b820191906000526020600020905b81548152906001019060200180831161132f57829003601f168201915b5050505050905090565b3373ffffffffffffffffffffffffffffffffffffffff168273ffffffffffffffffffffffffffffffffffffffff161415151561139157600080fd5b80600560003373ffffffffffffffffffffffffffffffffffffffff1673ffffffffffffffffffffffffffffffffffffffff16815260200190815260200160002060008473ffffffffffffffffffffffffffffffffffffffff1673ffffffffffffffffffffffffffffffffffffffff16815260200190815260200160002060006101000a81548160ff0219169083151502179055508173ffffffffffffffffffffffffffffffffffffffff163373ffffffffffffffffffffffffffffffffffffffff167f17307eab39ab6107e8899845ad3d59bd9653f200f220920489ca2b5937696c3183604051808215151515815260200191505060405180910390a35050565b6000809054906101000a900473ffffffffffffffffffffffffffffffffffffffff1681565b6114c2848484611029565b6114ce848484846119e1565b15156114d957600080fd5b50505050565b60606114ea82611c04565b151561155e576040517f08c379a00000000000000000000000000000000000000000000000000000000081526004018080602001828103825260148152602001807f546f6b656e20646f6573206e6f7420657869737400000000000000000000000081525060200191505060405180910390fd5b601260008381526020019081526020016000208054600181600116156101000203166002900480601f0160208091040260200160405190810160405280929190818152602001828054600181600116156101000203166002900480156116055780601f106115da57610100808354040283529160200191611605565b820191906000526020600020905b8154815290600101906020018083116115e857829003601f168201915b50505050509050919050565b6000600560008473ffffffffffffffffffffffffffffffffffffffff1673ffffffffffffffffffffffffffffffffffffffff16815260200190815260200160002060008373ffffffffffffffffffffffffffffffffffffffff1673ffffffffffffffffffffffffffffffffffffffff16815260200190815260200160002060009054906101000a900460ff16905092915050565b3373ffffffffffffffffffffffffffffffffffffffff166000809054906101000a900473ffffffffffffffffffffffffffffffffffffffff1673ffffffffffffffffffffffffffffffffffffffff1614151561170057600080fd5b600073ffffffffffffffffffffffffffffffffffffffff168173ffffffffffffffffffffffffffffffffffffffff161415156117a357806000806101000a81548173ffffffffffffffffffffffffffffffffffffffff021916908373ffffffffffffffffffffffffffffffffffffffff1602179055507fa5697afaaa2a27394d6d212a8353c05a95105f996ba5f04ac352f566c58f432b60405160405180910390a15b50565b6000806117b283611227565b90508073ffffffffffffffffffffffffffffffffffffffff168473ffffffffffffffffffffffffffffffffffffffff16148061182157508373ffffffffffffffffffffffffffffffffffffffff1661180984610e0c565b73ffffffffffffffffffffffffffffffffffffffff16145b8061183257506118318185611611565b5b91505092915050565b611846838383611c76565b6118508382611e82565b61185a8282612026565b505050565b61186982826120ed565b6118738282612026565b61187c8161223c565b5050565b61188981611c04565b15156118fd576040517f08c379a00000000000000000000000000000000000000000000000000000000081526004018080602001828103825260148152602001807f546f6b656e20646f6573206e6f7420657869737400000000000000000000000081525060200191505060405180910390fd5b6119a960118054600181600116156101000203166002900480601f0160208091040260200160405190810160405280929190818152602001828054600181600116156101000203166002900480156119965780601f1061196b57610100808354040283529160200191611996565b820191906000526020600020905b81548152906001019060200180831161197957829003601f168201915b50505050506119a483612288565b6123e1565b6012600083815260200190815260200160002090805190602001906119cf9291906129b1565b5050565b600081600001549050919050565b6000611a028473ffffffffffffffffffffffffffffffffffffffff16612428565b1515611a115760019050611bfc565b60008473ffffffffffffffffffffffffffffffffffffffff1663150b7a02338887876040518563ffffffff167c0100000000000000000000000000000000000000000000000000000000028152600401808573ffffffffffffffffffffffffffffffffffffffff1673ffffffffffffffffffffffffffffffffffffffff1681526020018473ffffffffffffffffffffffffffffffffffffffff1673ffffffffffffffffffffffffffffffffffffffff16815260200183815260200180602001828103825283818151815260200191508051906020019080838360005b83811015611b08578082015181840152602081019050611aed565b50505050905090810190601f168015611b355780820380516001836020036101000a031916815260200191505b5095505050505050602060405180830381600087803b158015611b5757600080fd5b505af1158015611b6b573d6000803e3d6000fd5b505050506040513d6020811015611b8157600080fd5b8101908080519060200190929190505050905063150b7a027c0100000000000000000000000000000000000000000000000000000000027bffffffffffffffffffffffffffffffffffffffffffffffffffffffff1916817bffffffffffffffffffffffffffffffffffffffffffffffffffffffff1916149150505b949350505050565b6000806002600084815260200190815260200160002060009054906101000a900473ffffffffffffffffffffffffffffffffffffffff169050600073ffffffffffffffffffffffffffffffffffffffff168173ffffffffffffffffffffffffffffffffffffffff161415915050919050565b8273ffffffffffffffffffffffffffffffffffffffff16611c9682611227565b73ffffffffffffffffffffffffffffffffffffffff16141515611cb857600080fd5b600073ffffffffffffffffffffffffffffffffffffffff168273ffffffffffffffffffffffffffffffffffffffff1614151515611cf457600080fd5b6000600560008473ffffffffffffffffffffffffffffffffffffffff1673ffffffffffffffffffffffffffffffffffffffff16815260200190815260200160002060008573ffffffffffffffffffffffffffffffffffffffff1673ffffffffffffffffffffffffffffffffffffffff16815260200190815260200160002060006101000a81548160ff021916908315150217905550611dd0600460008473ffffffffffffffffffffffffffffffffffffffff1673ffffffffffffffffffffffffffffffffffffffff168152602001908152602001600020612474565b816002600083815260200190815260200160002060006101000a81548173ffffffffffffffffffffffffffffffffffffffff021916908373ffffffffffffffffffffffffffffffffffffffff160217905550808273ffffffffffffffffffffffffffffffffffffffff168473ffffffffffffffffffffffffffffffffffffffff167fddf252ad1be2c89b69c2b068fc378daa952ba7f163c4a11628f55a4df523b3ef60405160405180910390a4505050565b6000611eda6001600660008673ffffffffffffffffffffffffffffffffffffffff1673ffffffffffffffffffffffffffffffffffffffff1681526020019081526020016000208054905061248a90919063ffffffff16565b90506000600760008481526020019081526020016000205490508181141515611fcd576000600660008673ffffffffffffffffffffffffffffffffffffffff1673ffffffffffffffffffffffffffffffffffffffff16815260200190815260200160002083815481101515611f4b57fe5b9060005260206000200154905080600660008773ffffffffffffffffffffffffffffffffffffffff1673ffffffffffffffffffffffffffffffffffffffff16815260200190815260200160002083815481101515611fa557fe5b9060005260206000200181905550816007600083815260200190815260200160002081905550505b600660008573ffffffffffffffffffffffffffffffffffffffff1673ffffffffffffffffffffffffffffffffffffffff16815260200190815260200160002080548091906001900361201f9190612a31565b5050505050565b600660008373ffffffffffffffffffffffffffffffffffffffff1673ffffffffffffffffffffffffffffffffffffffff168152602001908152602001600020805490506007600083815260200190815260200160002081905550600660008373ffffffffffffffffffffffffffffffffffffffff1673ffffffffffffffffffffffffffffffffffffffff1681526020019081526020016000208190806001815401808255809150509060018203906000526020600020016000909192909190915055505050565b600015156120fa82611c04565b151514151561210857600080fd5b600073ffffffffffffffffffffffffffffffffffffffff168273ffffffffffffffffffffffffffffffffffffffff161415151561214457600080fd5b816002600083815260200190815260200160002060006101000a81548173ffffffffffffffffffffffffffffffffffffffff021916908373ffffffffffffffffffffffffffffffffffffffff1602179055506121dd600460008473ffffffffffffffffffffffffffffffffffffffff1673ffffffffffffffffffffffffffffffffffffffff168152602001908152602001600020612474565b808273ffffffffffffffffffffffffffffffffffffffff163373ffffffffffffffffffffffffffffffffffffffff167fddf252ad1be2c89b69c2b068fc378daa952ba7f163c4a11628f55a4df523b3ef60405160405180910390a45050565b6008805490506009600083815260200190815260200160002081905550600881908060018154018082558091505090600182039060005260206000200160009091929091909150555050565b606060008214156122d0576040805190810160405280600181526020017f300000000000000000000000000000000000000000000000000000000000000081525090506123dc565b600082905060005b6000821415156122fe578080600101915050600a828115156122f657fe5b0491506122d8565b6060816040519080825280601f01601f1916602001820160405280156123335781602001600182028038833980820191505090505b50905060006001830390505b6000861415156123d457600a8681151561235557fe5b066030017f01000000000000000000000000000000000000000000000000000000000000000282828060019003935081518110151561239057fe5b9060200101907effffffffffffffffffffffffffffffffffffffffffffffffffffffffffffff1916908160001a905350600a868115156123cc57fe5b04955061233f565b819450505050505b919050565b606061242083836020604051908101604052806000815250602060405190810160405280600081525060206040519081016040528060008152506124d4565b905092915050565b60008060007fc5d2460186f7233c927e7db2dcc703c0e500b653ca82273b7bfad8045d85a4706001029050833f915080821415801561246b575060006001028214155b92505050919050565b6001816000016000828254019250508190555050565b60006124cc83836040805190810160405280601e81526020017f536166654d6174683a207375627472616374696f6e206f766572666c6f7700008152506128ef565b905092915050565b6060808690506060869050606086905060608690506060869050606081518351855187518951010101016040519080825280601f01601f1916602001820160405280156125305781602001600182028038833980820191505090505b509050606081905060008090506000809050600090505b88518110156125fa57888181518110151561255e57fe5b9060200101517f010000000000000000000000000000000000000000000000000000000000000090047f01000000000000000000000000000000000000000000000000000000000000000283838060010194508151811015156125bd57fe5b9060200101907effffffffffffffffffffffffffffffffffffffffffffffffffffffffffffff1916908160001a9053508080600101915050612547565b600090505b87518110156126b257878181518110151561261657fe5b9060200101517f010000000000000000000000000000000000000000000000000000000000000090047f010000000000000000000000000000000000000000000000000000000000000002838380600101945081518110151561267557fe5b9060200101907effffffffffffffffffffffffffffffffffffffffffffffffffffffffffffff1916908160001a90535080806001019150506125ff565b600090505b865181101561276a5786818151811015156126ce57fe5b9060200101517f010000000000000000000000000000000000000000000000000000000000000090047f010000000000000000000000000000000000000000000000000000000000000002838380600101945081518110151561272d57fe5b9060200101907effffffffffffffffffffffffffffffffffffffffffffffffffffffffffffff1916908160001a90535080806001019150506126b7565b600090505b855181101561282257858181518110151561278657fe5b9060200101517f010000000000000000000000000000000000000000000000000000000000000090047f01000000000000000000000000000000000000000000000000000000000000000283838060010194508151811015156127e557fe5b9060200101907effffffffffffffffffffffffffffffffffffffffffffffffffffffffffffff1916908160001a905350808060010191505061276f565b600090505b84518110156128da57848181518110151561283e57fe5b9060200101517f010000000000000000000000000000000000000000000000000000000000000090047f010000000000000000000000000000000000000000000000000000000000000002838380600101945081518110151561289d57fe5b9060200101907effffffffffffffffffffffffffffffffffffffffffffffffffffffffffffff1916908160001a9053508080600101915050612827565b82995050505050505050505095945050505050565b6000838311158290151561299e576040517f08c379a00000000000000000000000000000000000000000000000000000000081526004018080602001828103825283818151815260200191508051906020019080838360005b83811015612963578082015181840152602081019050612948565b50505050905090810190601f1680156129905780820380516001836020036101000a031916815260200191505b509250505060405180910390fd5b5060008385039050809150509392505050565b828054600181600116156101000203166002900490600052602060002090601f016020900481019282601f106129f257805160ff1916838001178555612a20565b82800160010185558215612a20579182015b82811115612a1f578251825591602001919060010190612a04565b5b509050612a2d9190612a5d565b5090565b815481835581811115612a5857818360005260206000209182019101612a579190612a5d565b5b505050565b612a7f91905b80821115612a7b576000816000905550600101612a63565b5090565b9056fea165627a7a72305820aaf4739f428da3ca7eb8b821f0a98e8f4ccd42c92910c8c73047a22e65e088200029",
  "source": "pragma solidity ^0.5.0;\n\nimport 'openzeppelin-solidity/contracts/utils/Address.sol';\nimport 'openzeppelin-solidity/contracts/drafts/Counters.sol';\nimport 'openzeppelin-solidity/contracts/math/SafeMath.sol';\nimport 'openzeppelin-solidity/contracts/token/ERC721/IERC721Receiver.sol';\nimport \"./Oraclize.sol\";\n\ncontract Ownable {\n    //  TODO's\n    //  1) create a private '_owner' variable of type address with a public getter function\n    address public _owner;\n    //  2) create an internal constructor that sets the _owner var to the creater of the contract\n    constructor() internal {\n      _owner = msg.sender;\n    }\n    //  3) create an 'onlyOwner' modifier that throws if called by any account other than the owner.\n    modifier onlyOwner() {\n      require(_owner == msg.sender);\n      _;\n    }\n    //  4) fill out the transferOwnership function\n    //  5) create an event that emits anytime ownerShip is transfered (including in the constructor)\n    event OwnerShipIsTransfered();\n\n    function transferOwnership(address newOwner) public onlyOwner {\n        // TODO add functionality to transfer control of the contract to a newOwner.\n        //newOwner.transfer(msg.value); // if fails newOwners address\n        // make sure the new owner is a real address\n        if(newOwner != address(0)){\n            _owner = newOwner;\n            emit OwnerShipIsTransfered();\n        }\n\n    }\n}\n\n//  TODO's: Create a Pausable contract that inherits from the Ownable contract\ncontract Pausable is Ownable {\n//  1) create a private '_paused' variable of type bool\n  bool private _paused;\n\n//  2) create a public setter using the inherited onlyOwner modifier\n// HERE\n  function setContact() public onlyOwner{\n  }\n\n//  3) create an internal constructor that sets the _paused variable to false\nconstructor() internal {\n  _paused = false;\n}\n\n//  4) create 'whenNotPaused' & 'paused' modifier that throws in the appropriate situation\nmodifier whenNotPaused{\n  if(_paused == false){\n    return;\n  }else{\n    revert();\n    //(\"Contract is not operational\")\n  }\n  emit Unpaused(msg.sender);\n  _;\n}\nmodifier paused {\n  if(_paused == true){\n    return;\n  }else{\n    revert();\n    //(\"Contract is operational\")\n  }\n  emit Paused(msg.sender);\n  _;\n}\n\n//  5) create a Paused & Unpaused event that emits the address that triggered the event\nevent Paused(address indexed caller);\nevent Unpaused(address indexed caller);\n\n}\n\ncontract ERC165 {\n    bytes4 private constant _INTERFACE_ID_ERC165 = 0x01ffc9a7;\n    /*\n     * 0x01ffc9a7 ===\n     *     bytes4(keccak256('supportsInterface(bytes4)'))\n     */\n\n    /**\n     * @dev a mapping of interface id to whether or not it's supported\n     */\n    mapping(bytes4 => bool) private _supportedInterfaces;\n\n    /**\n     * @dev A contract implementing SupportsInterfaceWithLookup\n     * implement ERC165 itself\n     */\n    constructor () internal {\n        _registerInterface(_INTERFACE_ID_ERC165);\n    }\n\n    /**\n     * @dev implement supportsInterface(bytes4) using a lookup table\n     */\n    function supportsInterface(bytes4 interfaceId) external view returns (bool) {\n        return _supportedInterfaces[interfaceId];\n    }\n\n    /**\n     * @dev internal method for registering an interface\n     */\n    function _registerInterface(bytes4 interfaceId) internal {\n        require(interfaceId != 0xffffffff);\n        _supportedInterfaces[interfaceId] = true;\n    }\n}\n\ncontract ERC721 is Pausable, ERC165 {\n\n    event Transfer(address indexed from, address indexed to, uint256 indexed tokenId);\n\n    event Approval(address indexed owner, address indexed approved, uint256 indexed tokenId);\n\n    event ApprovalForAll(address indexed owner, address indexed operator, bool approved);\n\n    using SafeMath for uint256;\n    using Address for address;\n    using Counters for Counters.Counter;\n\n    // Equals to `bytes4(keccak256(\"onERC721Received(address,address,uint256,bytes)\"))`\n    // which can be also obtained as `IERC721Receiver(0).onERC721Received.selector`\n    bytes4 private constant _ERC721_RECEIVED = 0x150b7a02;\n\n    // Mapping from token ID to owner\n    mapping (uint256 => address) private _tokenOwner;\n\n    // Mapping from token ID to approved address\n    mapping (uint256 => address) private _tokenApprovals;\n\n    // Mapping from owner to number of owned token\n    // IMPORTANT: this mapping uses Counters lib which is used to protect overflow when incrementing/decrementing a uint\n    // use the following functions when interacting with Counters: increment(), decrement(), and current() to get the value\n    // see: https://github.com/OpenZeppelin/openzeppelin-solidity/blob/master/contracts/drafts/Counters.sol\n    mapping (address => Counters.Counter) private _ownedTokensCount;\n\n    // Mapping from owner to operator approvals\n    mapping (address => mapping (address => bool)) private _operatorApprovals;\n\n    bytes4 private constant _INTERFACE_ID_ERC721 = 0x80ac58cd;\n\n    constructor () public {\n        // register the supported interfaces to conform to ERC721 via ERC165\n        _registerInterface(_INTERFACE_ID_ERC721);\n    }\n\n    function balanceOf(address owner) public view returns (uint256) {\n        // TODO return the token balance of given address\n        // HERE\n        return _ownedTokensCount[owner].current();\n        // TIP: remember the functions to use for Counters. you can refresh yourself with the link above\n    }\n\n    function ownerOf(uint256 tokenId) public view returns (address) {\n        // TODO return the owner of the given tokenId\n        return _tokenOwner[tokenId];\n\n    }\n\n//    @dev Approves another address to transfer the given token ID\n    function approve(address to, uint256 tokenId) public {\n\n        // TODO require the given address to not be the owner of the tokenId\n        require(msg.sender == ownerOf(tokenId));\n        // TODO require the msg sender to be the owner of the contract or isApprovedForAll() to be true\n        // HERE\n        require(isApprovedForAll(msg.sender, to));\n        // TODO add 'to' address to token approvals\n        _tokenApprovals[tokenId] = to;\n        // TODO emit Approval Event\n        emit Approval(msg.sender, to, tokenId);\n\n    }\n\n    function getApproved(uint256 tokenId) public view returns (address) {\n        // TODO return token approval if it exists\n        // HERE\n        if (_tokenApprovals[tokenId] != address(0)){\n          return(_tokenApprovals[tokenId]);\n        }\n    }\n\n    /**\n     * @dev Sets or unsets the approval of a given operator\n     * An operator is allowed to transfer all tokens of the sender on their behalf\n     * @param to operator address to set the approval\n     * @param approved representing the status of the approval to be set\n     */\n    function setApprovalForAll(address to, bool approved) public {\n        require(to != msg.sender);\n        _operatorApprovals[msg.sender][to] = approved;\n        emit ApprovalForAll(msg.sender, to, approved);\n    }\n\n    /**\n     * @dev Tells whether an operator is approved by a given owner\n     * @param owner owner address which you want to query the approval of\n     * @param operator operator address which you want to query the approval of\n     * @return bool whether the given operator is approved by the given owner\n     */\n    function isApprovedForAll(address owner, address operator) public view returns (bool) {\n        return _operatorApprovals[owner][operator];\n    }\n\n    function transferFrom(address from, address to, uint256 tokenId) public {\n        require(_isApprovedOrOwner(msg.sender, tokenId));\n\n        _transferFrom(from, to, tokenId);\n    }\n\n    function safeTransferFrom(address from, address to, uint256 tokenId) public {\n        safeTransferFrom(from, to, tokenId, \"\");\n    }\n\n    function safeTransferFrom(address from, address to, uint256 tokenId, bytes memory _data) public {\n        transferFrom(from, to, tokenId);\n        require(_checkOnERC721Received(from, to, tokenId, _data));\n    }\n\n    /**\n     * @dev Returns whether the specified token exists\n     * @param tokenId uint256 ID of the token to query the existence of\n     * @return bool whether the token exists\n     */\n    function _exists(uint256 tokenId) internal view returns (bool) {\n        address owner = _tokenOwner[tokenId];\n        return owner != address(0);\n    }\n\n    /**\n     * @dev Returns whether the given spender can transfer a given token ID\n     * @param spender address of the spender to query\n     * @param tokenId uint256 ID of the token to be transferred\n     * @return bool whether the msg.sender is approved for the given token ID,\n     * is an operator of the owner, or is the owner of the token\n     */\n    function _isApprovedOrOwner(address spender, uint256 tokenId) internal view returns (bool) {\n        address owner = ownerOf(tokenId);\n        return (spender == owner || getApproved(tokenId) == spender || isApprovedForAll(owner, spender));\n    }\n\n    // @dev Internal function to mint a new token\n    // TIP: remember the functions to use for Counters. you can refresh yourself with the link above\n    function _mint(address to, uint256 tokenId) internal {\n\n        // TODO revert if given tokenId already exists or given address is invalid\n        require(_exists(tokenId) == false);\n        // HERE\n        require(to != address(0));\n        // TODO mint tokenId to given address & increase token count of owner\n        _tokenOwner[tokenId] = to;\n        _ownedTokensCount[to].increment();\n        // TODO emit Transfer event\n        // HERE\n        emit Transfer(msg.sender, to, tokenId);\n    }\n\n    // @dev Internal function to transfer ownership of a given token ID to another address.\n    // TIP: remember the functions to use for Counters. you can refresh yourself with the link above\n    function _transferFrom(address from, address to, uint256 tokenId) internal {\n\n        // TODO: require from address is the owner of the given token\n        require(ownerOf(tokenId) == from);\n\n        // TODO: require token is being transfered to valid address\n        // HERE\n        require(to != address(0));\n        // TODO: clear approval\n        // HERE\n        _operatorApprovals[to][from] = false;\n        // TODO: update token counts & transfer ownership of the token ID\n        //_ownedTokensCount[from].decrement();\n        _ownedTokensCount[to].increment();\n        //safeTransferFrom(from,to,tokenId);\n        _tokenOwner[tokenId] = to;\n        // TODO: emit correct event\n        emit Transfer(from, to, tokenId);\n    }\n\n    /**\n     * @dev Internal function to invoke `onERC721Received` on a target address\n     * The call is not executed if the target address is not a contract\n     * @param from address representing the previous owner of the given token ID\n     * @param to target address that will receive the tokens\n     * @param tokenId uint256 ID of the token to be transferred\n     * @param _data bytes optional data to send along with the call\n     * @return bool whether the call correctly returned the expected magic value\n     */\n    function _checkOnERC721Received(address from, address to, uint256 tokenId, bytes memory _data)\n        internal returns (bool)\n    {\n        if (!to.isContract()) {\n            return true;\n        }\n\n        bytes4 retval = IERC721Receiver(to).onERC721Received(msg.sender, from, tokenId, _data);\n        return (retval == _ERC721_RECEIVED);\n    }\n\n    // @dev Private function to clear current approval of a given token ID\n    function _clearApproval(uint256 tokenId) private {\n        if (_tokenApprovals[tokenId] != address(0)) {\n            _tokenApprovals[tokenId] = address(0);\n        }\n    }\n}\n\ncontract ERC721Enumerable is ERC165, ERC721 {\n    // Mapping from owner to list of owned token IDs\n    mapping(address => uint256[]) private _ownedTokens;\n\n    // Mapping from token ID to index of the owner tokens list\n    mapping(uint256 => uint256) private _ownedTokensIndex;\n\n    // Array with all token ids, used for enumeration\n    uint256[] private _allTokens;\n\n    // Mapping from token id to position in the allTokens array\n    mapping(uint256 => uint256) private _allTokensIndex;\n\n    bytes4 private constant _INTERFACE_ID_ERC721_ENUMERABLE = 0x780e9d63;\n    /*\n     * 0x780e9d63 ===\n     *     bytes4(keccak256('totalSupply()')) ^\n     *     bytes4(keccak256('tokenOfOwnerByIndex(address,uint256)')) ^\n     *     bytes4(keccak256('tokenByIndex(uint256)'))\n     */\n\n    /**\n     * @dev Constructor function\n     */\n    constructor () public {\n        // register the supported interface to conform to ERC721Enumerable via ERC165\n        _registerInterface(_INTERFACE_ID_ERC721_ENUMERABLE);\n    }\n\n    /**\n     * @dev Gets the token ID at a given index of the tokens list of the requested owner\n     * @param owner address owning the tokens list to be accessed\n     * @param index uint256 representing the index to be accessed of the requested tokens list\n     * @return uint256 token ID at the given index of the tokens list owned by the requested address\n     */\n    function tokenOfOwnerByIndex(address owner, uint256 index) public view returns (uint256) {\n        require(index < balanceOf(owner));\n        return _ownedTokens[owner][index];\n    }\n\n    /**\n     * @dev Gets the total amount of tokens stored by the contract\n     * @return uint256 representing the total amount of tokens\n     */\n    function totalSupply() public view returns (uint256) {\n        return _allTokens.length;\n    }\n\n    /**\n     * @dev Gets the token ID at a given index of all the tokens in this contract\n     * Reverts if the index is greater or equal to the total number of tokens\n     * @param index uint256 representing the index to be accessed of the tokens list\n     * @return uint256 token ID at the given index of the tokens list\n     */\n    function tokenByIndex(uint256 index) public view returns (uint256) {\n        require(index < totalSupply());\n        return _allTokens[index];\n    }\n\n    /**\n     * @dev Internal function to transfer ownership of a given token ID to another address.\n     * As opposed to transferFrom, this imposes no restrictions on msg.sender.\n     * @param from current owner of the token\n     * @param to address to receive the ownership of the given token ID\n     * @param tokenId uint256 ID of the token to be transferred\n     */\n    function _transferFrom(address from, address to, uint256 tokenId) internal {\n        super._transferFrom(from, to, tokenId);\n\n        _removeTokenFromOwnerEnumeration(from, tokenId);\n\n        _addTokenToOwnerEnumeration(to, tokenId);\n    }\n\n    /**\n     * @dev Internal function to mint a new token\n     * Reverts if the given token ID already exists\n     * @param to address the beneficiary that will own the minted token\n     * @param tokenId uint256 ID of the token to be minted\n     */\n    function _mint(address to, uint256 tokenId) internal {\n        super._mint(to, tokenId);\n\n        _addTokenToOwnerEnumeration(to, tokenId);\n\n        _addTokenToAllTokensEnumeration(tokenId);\n    }\n\n    /**\n     * @dev Gets the list of token IDs of the requested owner\n     * @param owner address owning the tokens\n     * @return uint256[] List of token IDs owned by the requested address\n     */\n    function _tokensOfOwner(address owner) internal view returns (uint256[] storage) {\n        return _ownedTokens[owner];\n    }\n\n    /**\n     * @dev Private function to add a token to this extension's ownership-tracking data structures.\n     * @param to address representing the new owner of the given token ID\n     * @param tokenId uint256 ID of the token to be added to the tokens list of the given address\n     */\n    function _addTokenToOwnerEnumeration(address to, uint256 tokenId) private {\n        _ownedTokensIndex[tokenId] = _ownedTokens[to].length;\n        _ownedTokens[to].push(tokenId);\n    }\n\n    /**\n     * @dev Private function to add a token to this extension's token tracking data structures.\n     * @param tokenId uint256 ID of the token to be added to the tokens list\n     */\n    function _addTokenToAllTokensEnumeration(uint256 tokenId) private {\n        _allTokensIndex[tokenId] = _allTokens.length;\n        _allTokens.push(tokenId);\n    }\n\n    /**\n     * @dev Private function to remove a token from this extension's ownership-tracking data structures. Note that\n     * while the token is not assigned a new owner, the _ownedTokensIndex mapping is _not_ updated: this allows for\n     * gas optimizations e.g. when performing a transfer operation (avoiding double writes).\n     * This has O(1) time complexity, but alters the order of the _ownedTokens array.\n     * @param from address representing the previous owner of the given token ID\n     * @param tokenId uint256 ID of the token to be removed from the tokens list of the given address\n     */\n    function _removeTokenFromOwnerEnumeration(address from, uint256 tokenId) private {\n        // To prevent a gap in from's tokens array, we store the last token in the index of the token to delete, and\n        // then delete the last slot (swap and pop).\n\n        uint256 lastTokenIndex = _ownedTokens[from].length.sub(1);\n        uint256 tokenIndex = _ownedTokensIndex[tokenId];\n\n        // When the token to delete is the last token, the swap operation is unnecessary\n        if (tokenIndex != lastTokenIndex) {\n            uint256 lastTokenId = _ownedTokens[from][lastTokenIndex];\n\n            _ownedTokens[from][tokenIndex] = lastTokenId; // Move the last token to the slot of the to-delete token\n            _ownedTokensIndex[lastTokenId] = tokenIndex; // Update the moved token's index\n        }\n\n        // This also deletes the contents at the last position of the array\n        _ownedTokens[from].length--;\n\n        // Note that _ownedTokensIndex[tokenId] hasn't been cleared: it still points to the old slot (now occupied by\n        // lastTokenId, or just over the end of the array if the token was the last one).\n    }\n\n    /**\n     * @dev Private function to remove a token from this extension's token tracking data structures.\n     * This has O(1) time complexity, but alters the order of the _allTokens array.\n     * @param tokenId uint256 ID of the token to be removed from the tokens list\n     */\n    function _removeTokenFromAllTokensEnumeration(uint256 tokenId) private {\n        // To prevent a gap in the tokens array, we store the last token in the index of the token to delete, and\n        // then delete the last slot (swap and pop).\n\n        uint256 lastTokenIndex = _allTokens.length.sub(1);\n        uint256 tokenIndex = _allTokensIndex[tokenId];\n\n        // When the token to delete is the last token, the swap operation is unnecessary. However, since this occurs so\n        // rarely (when the last minted token is burnt) that we still do the swap here to avoid the gas cost of adding\n        // an 'if' statement (like in _removeTokenFromOwnerEnumeration)\n        uint256 lastTokenId = _allTokens[lastTokenIndex];\n\n        _allTokens[tokenIndex] = lastTokenId; // Move the last token to the slot of the to-delete token\n        _allTokensIndex[lastTokenId] = tokenIndex; // Update the moved token's index\n\n        // This also deletes the contents at the last position of the array\n        _allTokens.length--;\n        _allTokensIndex[tokenId] = 0;\n    }\n}\n\ncontract ERC721Metadata is ERC721Enumerable, usingOraclize {\n\n    // TODO: Create private vars for token _name, _symbol, and _baseTokenURI (string)\n    string private _name;\n    string private _symbol;\n    string private _baseTokenURI;\n    // TODO: create private mapping of tokenId's to token uri's called '_tokenURIs'\n    mapping (uint256 => string) private _tokenURIs;\n    bytes4 private constant _INTERFACE_ID_ERC721_METADATA = 0x5b5e139f;\n    /*\n     * 0x5b5e139f ===\n     *     bytes4(keccak256('name()')) ^\n     *     bytes4(keccak256('symbol()')) ^\n     *     bytes4(keccak256('tokenURI(uint256)'))\n     */\n\n\n    constructor (string memory name, string memory symbol, string memory baseTokenURI) public {\n        // TODO: set instance var values\n        _name = name;\n        _symbol = symbol;\n        _baseTokenURI = baseTokenURI;\n        _registerInterface(_INTERFACE_ID_ERC721_METADATA);\n    }\n\n    // TODO: create external getter functions for name, symbol, and baseTokenURI\n    function name() external view returns (string memory) {\n      return _name;\n    }\n\n    function symbol() external view returns (string memory) {\n      return _symbol;\n    }\n\n    function BaseTokenURI() external view returns (string memory) {\n      return _baseTokenURI;\n    }\n\n\n    function tokenURI(uint256 tokenId) external view returns (string memory) {\n        require(_exists(tokenId), \"Token does not exist\");\n        return _tokenURIs[tokenId];\n    }\n\n\n    // TODO: Create an internal function to set the tokenURI of a specified tokenId\n    // It should be the _baseTokenURI + the tokenId in string form\n    // TIP #1: use strConcat() from the imported oraclizeAPI lib to set the complete token URI\n    // TIP #2: you can also use uint2str() to convert a uint to a string\n        // see https://github.com/oraclize/ethereum-api/blob/master/oraclizeAPI_0.5.sol for strConcat()\n    // require the token exists before setting\n    function setTokenURI(uint256 tokenId) internal {\n      require(_exists(tokenId), \"Token does not exist\");\n      _tokenURIs[tokenId] = strConcat(_baseTokenURI, uint2str(tokenId));\n    }\n\n}\n\n//  TODO's: Create CustomERC721Token contract that inherits from the ERC721Metadata contract. You can name this contract as you please\n//  1) Pass in appropriate values for the inherited ERC721Metadata contract\n//      - make the base token uri: https://s3-us-west-2.amazonaws.com/udacity-blockchain/capstone/\n//  2) create a public mint() that does the following:\n//      -can only be executed by the contract owner\n//      -takes in a 'to' address, tokenId, and tokenURI as parameters\n//      -returns a true boolean upon completion of the function\n//      -calls the superclass mint and setTokenURI functions\ncontract HouseToken is ERC721Metadata{\n\n    //      - make the base token uri: https://s3-us-west-2.amazonaws.com/udacity-blockchain/capstone/\n  constructor(string memory name, string memory symbol)\n      ERC721Metadata(name, symbol, \"https://s3-us-west-2.amazonaws.com/udacity-blockchain/capstone/\")\n      public\n  {\n  }\n\n  // HERE\n  function mint(address to,uint256 tokenId) public returns (bool) {\n    super._mint(to, tokenId);\n    setTokenURI(tokenId);\n    return true;\n  }\n\n}\n\n\n\n\n\n\n\n\n\n// pragma solidity ^0.5.0;\n\n// import 'openzeppelin-solidity/contracts/utils/Address.sol';\n// import 'openzeppelin-solidity/contracts/drafts/Counters.sol';\n// import 'openzeppelin-solidity/contracts/math/SafeMath.sol';\n// import 'openzeppelin-solidity/contracts/token/ERC721/IERC721Receiver.sol';\n// import \"./Oraclize.sol\";\n\n// contract Ownable {\n//     //  TODO's\n//     //  1) create a private '_owner' variable of type address with a public getter function\n//     address public _owner;\n//     //  2) create an internal constructor that sets the _owner var to the creater of the contract\n//     constructor() internal {\n//       _owner = msg.sender;\n//     }\n//     //  3) create an 'onlyOwner' modifier that throws if called by any account other than the owner.\n//     modifier onlyOwner() {\n//       require(_owner == msg.sender, 'Caller is not the contract owner');\n//       _;\n//     }\n//     //  4) fill out the transferOwnership function\n//     //  5) create an event that emits anytime ownerShip is transfered (including in the constructor)\n//     event OwnerShipIsTransfered();\n\n//     function transferOwnership(address newOwner) public onlyOwner {\n//         // TODO add functionality to transfer control of the contract to a newOwner.\n//         //newOwner.transfer(msg.value); // if fails newOwners address\n//         // make sure the new owner is a real address\n//         if(newOwner != address(0)){\n//             _owner = newOwner;\n//             emit OwnerShipIsTransfered();\n//         }\n\n//     }\n// }\n\n// //  TODO's: Create a Pausable contract that inherits from the Ownable contract\n// contract Pausable is Ownable {\n// //  1) create a private '_paused' variable of type bool\n//   bool private _paused;\n\n// //  2) create a public setter using the inherited onlyOwner modifier\n// // HERE\n//   function setContact() public onlyOwner{\n//   }\n\n// //  3) create an internal constructor that sets the _paused variable to false\n// constructor() internal {\n//   _paused = false;\n// }\n\n// //  4) create 'whenNotPaused' & 'paused' modifier that throws in the appropriate situation\n// modifier whenNotPaused{\n//   require(!_paused, \"Contract is currently not paused\");\n//   _;\n// }\n// modifier paused {\n//   require(_paused, \"Contract is currently paused\");\n//   _;\n// }\n\n// //  5) create a Paused & Unpaused event that emits the address that triggered the event\n// event Paused(address indexed caller);\n// event Unpaused(address indexed caller);\n\n// }\n\n// contract ERC165 {\n//     bytes4 private constant _INTERFACE_ID_ERC165 = 0x01ffc9a7;\n//     /*\n//      * 0x01ffc9a7 ===\n//      *     bytes4(keccak256('supportsInterface(bytes4)'))\n//      */\n\n//     /**\n//      * @dev a mapping of interface id to whether or not it's supported\n//      */\n//     mapping(bytes4 => bool) private _supportedInterfaces;\n\n//     /**\n//      * @dev A contract implementing SupportsInterfaceWithLookup\n//      * implement ERC165 itself\n//      */\n//     constructor () internal {\n//         _registerInterface(_INTERFACE_ID_ERC165);\n//     }\n\n//     /**\n//      * @dev implement supportsInterface(bytes4) using a lookup table\n//      */\n//     function supportsInterface(bytes4 interfaceId) external view returns (bool) {\n//         return _supportedInterfaces[interfaceId];\n//     }\n\n//     /**\n//      * @dev internal method for registering an interface\n//      */\n//     function _registerInterface(bytes4 interfaceId) internal {\n//         require(interfaceId != 0xffffffff);\n//         _supportedInterfaces[interfaceId] = true;\n//     }\n// }\n\n// contract ERC721 is Pausable, ERC165 {\n\n//     event Transfer(address indexed from, address indexed to, uint256 indexed tokenId);\n\n//     event Approval(address indexed owner, address indexed approved, uint256 indexed tokenId);\n\n//     event ApprovalForAll(address indexed owner, address indexed operator, bool approved);\n\n//     using SafeMath for uint256;\n//     using Address for address;\n//     using Counters for Counters.Counter;\n\n//     // Equals to `bytes4(keccak256(\"onERC721Received(address,address,uint256,bytes)\"))`\n//     // which can be also obtained as `IERC721Receiver(0).onERC721Received.selector`\n//     bytes4 private constant _ERC721_RECEIVED = 0x150b7a02;\n\n//     // Mapping from token ID to owner\n//     mapping (uint256 => address) private _tokenOwner;\n\n//     // Mapping from token ID to approved address\n//     mapping (uint256 => address) private _tokenApprovals;\n\n//     // Mapping from owner to number of owned token\n//     // IMPORTANT: this mapping uses Counters lib which is used to protect overflow when incrementing/decrementing a uint\n//     // use the following functions when interacting with Counters: increment(), decrement(), and current() to get the value\n//     // see: https://github.com/OpenZeppelin/openzeppelin-solidity/blob/master/contracts/drafts/Counters.sol\n//     mapping (address => Counters.Counter) private _ownedTokensCount;\n\n//     // Mapping from owner to operator approvals\n//     mapping (address => mapping (address => bool)) private _operatorApprovals;\n\n//     bytes4 private constant _INTERFACE_ID_ERC721 = 0x80ac58cd;\n\n//     constructor () public {\n//         // register the supported interfaces to conform to ERC721 via ERC165\n//         _registerInterface(_INTERFACE_ID_ERC721);\n//     }\n\n//     function balanceOf(address owner) public view returns (uint256) {\n//         // TODO return the token balance of given address\n//         // HERE\n//         return _ownedTokensCount[owner].current();\n//         // TIP: remember the functions to use for Counters. you can refresh yourself with the link above\n//     }\n\n//     function ownerOf(uint256 tokenId) public view returns (address) {\n//         // TODO return the owner of the given tokenId\n//         return _tokenOwner[tokenId];\n\n//     }\n\n// //    @dev Approves another address to transfer the given token ID\n//     function approve(address to, uint256 tokenId) public {\n\n//         // TODO require the given address to not be the owner of the tokenId\n//         require(to == ownerOf(tokenId), \"Cannot approve to yourself\");\n//         // TODO require the msg sender to be the owner of the contract or isApprovedForAll() to be true\n//         // HERE\n//         require(msg.sender == ownerOf(tokenId) || isApprovedForAll(ownerOf(tokenId), msg.sender), \"Caller is not authorized against this token\");\n//         // TODO add 'to' address to token approvals\n//         _tokenApprovals[tokenId] = to;\n//         // TODO emit Approval Event\n//         emit Approval(msg.sender, to, tokenId);\n\n//     }\n\n//     function getApproved(uint256 tokenId) public view returns (address) {\n//         // TODO return token approval if it exists\n//         // HERE\n//         if (_tokenApprovals[tokenId] != address(0)){\n//           return(_tokenApprovals[tokenId]);\n//         }\n//     }\n\n//     /**\n//      * @dev Sets or unsets the approval of a given operator\n//      * An operator is allowed to transfer all tokens of the sender on their behalf\n//      * @param to operator address to set the approval\n//      * @param approved representing the status of the approval to be set\n//      */\n//     function setApprovalForAll(address to, bool approved) public {\n//         require(to != msg.sender);\n//         _operatorApprovals[msg.sender][to] = approved;\n//         emit ApprovalForAll(msg.sender, to, approved);\n//     }\n\n//     /**\n//      * @dev Tells whether an operator is approved by a given owner\n//      * @param owner owner address which you want to query the approval of\n//      * @param operator operator address which you want to query the approval of\n//      * @return bool whether the given operator is approved by the given owner\n//      */\n//     function isApprovedForAll(address owner, address operator) public view returns (bool) {\n//         return _operatorApprovals[owner][operator];\n//     }\n\n//     function transferFrom(address from, address to, uint256 tokenId) public {\n//         require(_isApprovedOrOwner(msg.sender, tokenId));\n\n//         _transferFrom(from, to, tokenId);\n//     }\n\n//     function safeTransferFrom(address from, address to, uint256 tokenId) public {\n//         safeTransferFrom(from, to, tokenId, \"\");\n//     }\n\n//     function safeTransferFrom(address from, address to, uint256 tokenId, bytes memory _data) public {\n//         transferFrom(from, to, tokenId);\n//         require(_checkOnERC721Received(from, to, tokenId, _data));\n//     }\n\n//     /**\n//      * @dev Returns whether the specified token exists\n//      * @param tokenId uint256 ID of the token to query the existence of\n//      * @return bool whether the token exists\n//      */\n//     function _exists(uint256 tokenId) internal view returns (bool) {\n//         address owner = _tokenOwner[tokenId];\n//         return owner != address(0);\n//     }\n\n//     /**\n//      * @dev Returns whether the given spender can transfer a given token ID\n//      * @param spender address of the spender to query\n//      * @param tokenId uint256 ID of the token to be transferred\n//      * @return bool whether the msg.sender is approved for the given token ID,\n//      * is an operator of the owner, or is the owner of the token\n//      */\n//     function _isApprovedOrOwner(address spender, uint256 tokenId) internal view returns (bool) {\n//         address owner = ownerOf(tokenId);\n//         return (spender == owner || getApproved(tokenId) == spender || isApprovedForAll(owner, spender));\n//     }\n\n//     // @dev Internal function to mint a new token\n//     // TIP: remember the functions to use for Counters. you can refresh yourself with the link above\n//     function _mint(address to, uint256 tokenId) internal {\n\n//         // TODO revert if given tokenId already exists or given address is invalid\n//         require(_exists(tokenId) == false, \"Token exists already\");\n//         // HERE\n//         require(to != address(0), \"Invalid to address\");\n//         // TODO mint tokenId to given address & increase token count of owner\n//         _tokenOwner[tokenId] = to;\n//         _ownedTokensCount[to].increment();\n//         // TODO emit Transfer event\n//         // HERE\n//         emit Transfer(address(0), to, tokenId);\n//     }\n\n//     // @dev Internal function to transfer ownership of a given token ID to another address.\n//     // TIP: remember the functions to use for Counters. you can refresh yourself with the link above\n//     function _transferFrom(address from, address to, uint256 tokenId) internal {\n\n//         // TODO: require from address is the owner of the given token\n//         require(ownerOf(tokenId) == from, \"Only token owner can perform this\");\n\n//         // TODO: require token is being transfered to valid address\n//         // HERE\n//         require(to != address(0), \"Invalid to address\");\n//         // TODO: clear approval\n//         // HERE\n//         _operatorApprovals[to][from] = false;\n//         // TODO: update token counts & transfer ownership of the token ID\n//         _ownedTokensCount[from].decrement();\n//         _ownedTokensCount[to].increment();\n//         //safeTransferFrom(from,to,tokenId);\n//         _tokenOwner[tokenId] = to;\n//         // TODO: emit correct event\n//         emit Transfer(from, to, tokenId);\n//     }\n\n//     /**\n//      * @dev Internal function to invoke `onERC721Received` on a target address\n//      * The call is not executed if the target address is not a contract\n//      * @param from address representing the previous owner of the given token ID\n//      * @param to target address that will receive the tokens\n//      * @param tokenId uint256 ID of the token to be transferred\n//      * @param _data bytes optional data to send along with the call\n//      * @return bool whether the call correctly returned the expected magic value\n//      */\n//     function _checkOnERC721Received(address from, address to, uint256 tokenId, bytes memory _data)\n//         internal returns (bool)\n//     {\n//         if (!to.isContract()) {\n//             return true;\n//         }\n\n//         bytes4 retval = IERC721Receiver(to).onERC721Received(msg.sender, from, tokenId, _data);\n//         return (retval == _ERC721_RECEIVED);\n//     }\n\n//     // @dev Private function to clear current approval of a given token ID\n//     function _clearApproval(uint256 tokenId) private {\n//         if (_tokenApprovals[tokenId] != address(0)) {\n//             _tokenApprovals[tokenId] = address(0);\n//         }\n//     }\n// }\n\n// contract ERC721Enumerable is ERC165, ERC721 {\n//     // Mapping from owner to list of owned token IDs\n//     mapping(address => uint256[]) private _ownedTokens;\n\n//     // Mapping from token ID to index of the owner tokens list\n//     mapping(uint256 => uint256) private _ownedTokensIndex;\n\n//     // Array with all token ids, used for enumeration\n//     uint256[] private _allTokens;\n\n//     // Mapping from token id to position in the allTokens array\n//     mapping(uint256 => uint256) private _allTokensIndex;\n\n//     bytes4 private constant _INTERFACE_ID_ERC721_ENUMERABLE = 0x780e9d63;\n//     /*\n//      * 0x780e9d63 ===\n//      *     bytes4(keccak256('totalSupply()')) ^\n//      *     bytes4(keccak256('tokenOfOwnerByIndex(address,uint256)')) ^\n//      *     bytes4(keccak256('tokenByIndex(uint256)'))\n//      */\n\n//     /**\n//      * @dev Constructor function\n//      */\n//     constructor () public {\n//         // register the supported interface to conform to ERC721Enumerable via ERC165\n//         _registerInterface(_INTERFACE_ID_ERC721_ENUMERABLE);\n//     }\n\n//     /**\n//      * @dev Gets the token ID at a given index of the tokens list of the requested owner\n//      * @param owner address owning the tokens list to be accessed\n//      * @param index uint256 representing the index to be accessed of the requested tokens list\n//      * @return uint256 token ID at the given index of the tokens list owned by the requested address\n//      */\n//     function tokenOfOwnerByIndex(address owner, uint256 index) public view returns (uint256) {\n//         require(index < balanceOf(owner));\n//         return _ownedTokens[owner][index];\n//     }\n\n//     /**\n//      * @dev Gets the total amount of tokens stored by the contract\n//      * @return uint256 representing the total amount of tokens\n//      */\n//     function totalSupply() public view returns (uint256) {\n//         return _allTokens.length;\n//     }\n\n//     /**\n//      * @dev Gets the token ID at a given index of all the tokens in this contract\n//      * Reverts if the index is greater or equal to the total number of tokens\n//      * @param index uint256 representing the index to be accessed of the tokens list\n//      * @return uint256 token ID at the given index of the tokens list\n//      */\n//     function tokenByIndex(uint256 index) public view returns (uint256) {\n//         require(index < totalSupply());\n//         return _allTokens[index];\n//     }\n\n//     /**\n//      * @dev Internal function to transfer ownership of a given token ID to another address.\n//      * As opposed to transferFrom, this imposes no restrictions on msg.sender.\n//      * @param from current owner of the token\n//      * @param to address to receive the ownership of the given token ID\n//      * @param tokenId uint256 ID of the token to be transferred\n//      */\n//     function _transferFrom(address from, address to, uint256 tokenId) internal {\n//         super._transferFrom(from, to, tokenId);\n\n//         _removeTokenFromOwnerEnumeration(from, tokenId);\n\n//         _addTokenToOwnerEnumeration(to, tokenId);\n//     }\n\n//     /**\n//      * @dev Internal function to mint a new token\n//      * Reverts if the given token ID already exists\n//      * @param to address the beneficiary that will own the minted token\n//      * @param tokenId uint256 ID of the token to be minted\n//      */\n//     function _mint(address to, uint256 tokenId) internal {\n//         super._mint(to, tokenId);\n\n//         _addTokenToOwnerEnumeration(to, tokenId);\n\n//         _addTokenToAllTokensEnumeration(tokenId);\n//     }\n\n//     /**\n//      * @dev Gets the list of token IDs of the requested owner\n//      * @param owner address owning the tokens\n//      * @return uint256[] List of token IDs owned by the requested address\n//      */\n//     function _tokensOfOwner(address owner) internal view returns (uint256[] storage) {\n//         return _ownedTokens[owner];\n//     }\n\n//     /**\n//      * @dev Private function to add a token to this extension's ownership-tracking data structures.\n//      * @param to address representing the new owner of the given token ID\n//      * @param tokenId uint256 ID of the token to be added to the tokens list of the given address\n//      */\n//     function _addTokenToOwnerEnumeration(address to, uint256 tokenId) private {\n//         _ownedTokensIndex[tokenId] = _ownedTokens[to].length;\n//         _ownedTokens[to].push(tokenId);\n//     }\n\n//     /**\n//      * @dev Private function to add a token to this extension's token tracking data structures.\n//      * @param tokenId uint256 ID of the token to be added to the tokens list\n//      */\n//     function _addTokenToAllTokensEnumeration(uint256 tokenId) private {\n//         _allTokensIndex[tokenId] = _allTokens.length;\n//         _allTokens.push(tokenId);\n//     }\n\n//     /**\n//      * @dev Private function to remove a token from this extension's ownership-tracking data structures. Note that\n//      * while the token is not assigned a new owner, the _ownedTokensIndex mapping is _not_ updated: this allows for\n//      * gas optimizations e.g. when performing a transfer operation (avoiding double writes).\n//      * This has O(1) time complexity, but alters the order of the _ownedTokens array.\n//      * @param from address representing the previous owner of the given token ID\n//      * @param tokenId uint256 ID of the token to be removed from the tokens list of the given address\n//      */\n//     function _removeTokenFromOwnerEnumeration(address from, uint256 tokenId) private {\n//         // To prevent a gap in from's tokens array, we store the last token in the index of the token to delete, and\n//         // then delete the last slot (swap and pop).\n\n//         uint256 lastTokenIndex = _ownedTokens[from].length.sub(1);\n//         uint256 tokenIndex = _ownedTokensIndex[tokenId];\n\n//         // When the token to delete is the last token, the swap operation is unnecessary\n//         if (tokenIndex != lastTokenIndex) {\n//             uint256 lastTokenId = _ownedTokens[from][lastTokenIndex];\n\n//             _ownedTokens[from][tokenIndex] = lastTokenId; // Move the last token to the slot of the to-delete token\n//             _ownedTokensIndex[lastTokenId] = tokenIndex; // Update the moved token's index\n//         }\n\n//         // This also deletes the contents at the last position of the array\n//         _ownedTokens[from].length--;\n\n//         // Note that _ownedTokensIndex[tokenId] hasn't been cleared: it still points to the old slot (now occupied by\n//         // lastTokenId, or just over the end of the array if the token was the last one).\n//     }\n\n//     /**\n//      * @dev Private function to remove a token from this extension's token tracking data structures.\n//      * This has O(1) time complexity, but alters the order of the _allTokens array.\n//      * @param tokenId uint256 ID of the token to be removed from the tokens list\n//      */\n//     function _removeTokenFromAllTokensEnumeration(uint256 tokenId) private {\n//         // To prevent a gap in the tokens array, we store the last token in the index of the token to delete, and\n//         // then delete the last slot (swap and pop).\n\n//         uint256 lastTokenIndex = _allTokens.length.sub(1);\n//         uint256 tokenIndex = _allTokensIndex[tokenId];\n\n//         // When the token to delete is the last token, the swap operation is unnecessary. However, since this occurs so\n//         // rarely (when the last minted token is burnt) that we still do the swap here to avoid the gas cost of adding\n//         // an 'if' statement (like in _removeTokenFromOwnerEnumeration)\n//         uint256 lastTokenId = _allTokens[lastTokenIndex];\n\n//         _allTokens[tokenIndex] = lastTokenId; // Move the last token to the slot of the to-delete token\n//         _allTokensIndex[lastTokenId] = tokenIndex; // Update the moved token's index\n\n//         // This also deletes the contents at the last position of the array\n//         _allTokens.length--;\n//         _allTokensIndex[tokenId] = 0;\n//     }\n// }\n\n// contract ERC721Metadata is ERC721Enumerable, usingOraclize {\n\n//     // TODO: Create private vars for token _name, _symbol, and _baseTokenURI (string)\n//     string private _name;\n//     string private _symbol;\n//     string private _baseTokenURI;\n//     // TODO: create private mapping of tokenId's to token uri's called '_tokenURIs'\n//     mapping (uint256 => string) private _tokenURIs;\n//     bytes4 private constant _INTERFACE_ID_ERC721_METADATA = 0x5b5e139f;\n//     /*\n//      * 0x5b5e139f ===\n//      *     bytes4(keccak256('name()')) ^\n//      *     bytes4(keccak256('symbol()')) ^\n//      *     bytes4(keccak256('tokenURI(uint256)'))\n//      */\n\n\n//     constructor (string memory name, string memory symbol, string memory baseTokenURI) public {\n//         // TODO: set instance var values\n//         _name = name;\n//         _symbol = symbol;\n//         _baseTokenURI = baseTokenURI;\n//         _registerInterface(_INTERFACE_ID_ERC721_METADATA);\n//     }\n\n//     // TODO: create external getter functions for name, symbol, and baseTokenURI\n//     function name() external view returns (string memory) {\n//       return _name;\n//     }\n\n//     function symbol() external view returns (string memory) {\n//       return _symbol;\n//     }\n\n//     function BaseTokenURI() external view returns (string memory) {\n//       return _baseTokenURI;\n//     }\n\n\n//     function tokenURI(uint256 tokenId) external view returns (string memory) {\n//         require(_exists(tokenId), \"Token does not exist\");\n//         return _tokenURIs[tokenId];\n//     }\n\n\n//     // TODO: Create an internal function to set the tokenURI of a specified tokenId\n//     // It should be the _baseTokenURI + the tokenId in string form\n//     // TIP #1: use strConcat() from the imported oraclizeAPI lib to set the complete token URI\n//     // TIP #2: you can also use uint2str() to convert a uint to a string\n//         // see https://github.com/oraclize/ethereum-api/blob/master/oraclizeAPI_0.5.sol for strConcat()\n//     // require the token exists before setting\n//     function setTokenURI(uint256 tokenId) internal {\n//       require(_exists(tokenId), \"Token does not exist\");\n//       _tokenURIs[tokenId] = strConcat(_baseTokenURI, uint2str(tokenId));\n//     }\n\n// }\n\n// //  TODO's: Create CustomERC721Token contract that inherits from the ERC721Metadata contract. You can name this contract as you please\n// //  1) Pass in appropriate values for the inherited ERC721Metadata contract\n// //      - make the base token uri: https://s3-us-west-2.amazonaws.com/udacity-blockchain/capstone/\n// //  2) create a public mint() that does the following:\n// //      -can only be executed by the contract owner\n// //      -takes in a 'to' address, tokenId, and tokenURI as parameters\n// //      -returns a true boolean upon completion of the function\n// //      -calls the superclass mint and setTokenURI functions\n// contract ERC721MintableComplete is ERC721Metadata{\n\n//     //      - make the base token uri: https://s3-us-west-2.amazonaws.com/udacity-blockchain/capstone/\n//   constructor(string memory name, string memory symbol)\n//       ERC721Metadata(name, symbol, \"https://s3-us-west-2.amazonaws.com/udacity-blockchain/capstone/\")\n//       public\n//   {\n//   }\n\n//   // HERE\n//   function mint(address to,uint256 tokenId) public onlyOwner returns (bool) {\n//     super._mint(to, tokenId);\n//     setTokenURI(tokenId);\n//     return true;\n//   }\n\n// }\n",
  "sourcePath": "D:\\Blockchain\\projects\\P5\\Blockchain-Capstone-master\\eth-contracts\\contracts\\ERC721Mintable.sol",
  "compiler": {
    "name": "solc",
    "version": "0.5.1+commit.c8a2cb62.Emscripten.clang"
  },
  "schemaVersion": "3.0.23",
  "updatedAt": "2020-06-05T17:23:27.088Z",
  "devdoc": {
    "methods": {
      "isApprovedForAll(address,address)": {
        "details": "Tells whether an operator is approved by a given owner",
        "params": {
          "operator": "operator address which you want to query the approval of",
          "owner": "owner address which you want to query the approval of"
        },
        "return": "bool whether the given operator is approved by the given owner"
      },
      "setApprovalForAll(address,bool)": {
        "details": "Sets or unsets the approval of a given operator An operator is allowed to transfer all tokens of the sender on their behalf",
        "params": {
          "approved": "representing the status of the approval to be set",
          "to": "operator address to set the approval"
        }
      },
      "supportsInterface(bytes4)": {
        "details": "implement supportsInterface(bytes4) using a lookup table"
      },
      "tokenByIndex(uint256)": {
        "details": "Gets the token ID at a given index of all the tokens in this contract Reverts if the index is greater or equal to the total number of tokens",
        "params": {
          "index": "uint256 representing the index to be accessed of the tokens list"
        },
        "return": "uint256 token ID at the given index of the tokens list"
      },
      "tokenOfOwnerByIndex(address,uint256)": {
        "details": "Gets the token ID at a given index of the tokens list of the requested owner",
        "params": {
          "index": "uint256 representing the index to be accessed of the requested tokens list",
          "owner": "address owning the tokens list to be accessed"
        },
        "return": "uint256 token ID at the given index of the tokens list owned by the requested address"
      },
      "totalSupply()": {
        "details": "Gets the total amount of tokens stored by the contract",
        "return": "uint256 representing the total amount of tokens"
      }
    }
  },
  "userdoc": {
    "methods": {}
  }
}